{
  "_format": "hh-sol-artifact-1",
  "contractName": "SimpleStorage",
  "sourceName": "contracts/simple-storage.sol",
  "abi": [
    {
      "inputs": [],
      "stateMutability": "nonpayable",
      "type": "constructor"
    },
    {
      "anonymous": false,
      "inputs": [
        {
          "indexed": false,
          "internalType": "uint256",
          "name": "newValue",
          "type": "uint256"
        }
      ],
      "name": "ValueUpdated",
      "type": "event"
    },
    {
      "inputs": [],
      "name": "getValue",
      "outputs": [
        {
          "internalType": "uint256",
          "name": "",
          "type": "uint256"
        }
      ],
      "stateMutability": "view",
      "type": "function"
    },
    {
      "inputs": [],
      "name": "owner",
      "outputs": [
        {
          "internalType": "address",
          "name": "",
          "type": "address"
        }
      ],
      "stateMutability": "view",
      "type": "function"
    },
    {
      "inputs": [
        {
          "internalType": "uint256",
          "name": "_value",
          "type": "uint256"
        }
      ],
      "name": "setValue",
      "outputs": [],
      "stateMutability": "nonpayable",
      "type": "function"
    }
  ],
  "bytecode": "0x6080604052348015600e575f5ffd5b505f80546001600160a01b031916331790556101be8061002d5f395ff3fe608060405234801561000f575f5ffd5b506004361061003f575f3560e01c8063209652551461004357806355241077146100595780638da5cb5b1461006e575b5f5ffd5b6001546040519081526020015b60405180910390f35b61006c610067366004610171565b6100b2565b005b5f5461008d9073ffffffffffffffffffffffffffffffffffffffff1681565b60405173ffffffffffffffffffffffffffffffffffffffff9091168152602001610050565b5f5473ffffffffffffffffffffffffffffffffffffffff163314610136576040517f08c379a000000000000000000000000000000000000000000000000000000000815260206004820152600c60248201527f42756b616e206f776e6572210000000000000000000000000000000000000000604482015260640160405180910390fd5b60018190556040518181527f4273d0736f60e0dedfe745e86718093d8ec8646ebd2a60cd60643eeced5658119060200160405180910390a150565b5f60208284031215610181575f5ffd5b503591905056fea2646970667358221220d4209741ddf1433ccac0a9d25182b7ef7af85f79fb5f227b5793c31b1a6dc09064736f6c634300081b0033",
  "linkReferences": {},
  "deployedLinkReferences": {}
}